{
  "abi": [
    {
      "inputs": [
        {
          "internalType": "uint256",
          "name": "_initialFee",
          "type": "uint256"
        }
      ],
      "stateMutability": "nonpayable",
      "type": "constructor"
    },
    {
      "anonymous": false,
      "inputs": [
        {
          "indexed": true,
          "internalType": "address",
          "name": "user",
          "type": "address"
        },
        {
          "indexed": false,
          "internalType": "uint256",
          "name": "fee",
          "type": "uint256"
        }
      ],
      "name": "JoinedIn",
      "type": "event"
    },
    {
      "anonymous": false,
      "inputs": [
        {
          "indexed": false,
          "internalType": "address",
          "name": "account",
          "type": "address"
        }
      ],
      "name": "Paused",
      "type": "event"
    },
    {
      "anonymous": false,
      "inputs": [
        {
          "indexed": true,
          "internalType": "address",
          "name": "admin",
          "type": "address"
        },
        {
          "indexed": false,
          "internalType": "uint256",
          "name": "newFee",
          "type": "uint256"
        },
        {
          "indexed": false,
          "internalType": "uint256",
          "name": "previousFee",
          "type": "uint256"
        }
      ],
      "name": "RegistrationFeeUpdated",
      "type": "event"
    },
    {
      "anonymous": false,
      "inputs": [
        {
          "indexed": true,
          "internalType": "bytes32",
          "name": "role",
          "type": "bytes32"
        },
        {
          "indexed": true,
          "internalType": "bytes32",
          "name": "previousAdminRole",
          "type": "bytes32"
        },
        {
          "indexed": true,
          "internalType": "bytes32",
          "name": "newAdminRole",
          "type": "bytes32"
        }
      ],
      "name": "RoleAdminChanged",
      "type": "event"
    },
    {
      "anonymous": false,
      "inputs": [
        {
          "indexed": true,
          "internalType": "bytes32",
          "name": "role",
          "type": "bytes32"
        },
        {
          "indexed": true,
          "internalType": "address",
          "name": "account",
          "type": "address"
        },
        {
          "indexed": true,
          "internalType": "address",
          "name": "sender",
          "type": "address"
        }
      ],
      "name": "RoleGranted",
      "type": "event"
    },
    {
      "anonymous": false,
      "inputs": [
        {
          "indexed": true,
          "internalType": "bytes32",
          "name": "role",
          "type": "bytes32"
        },
        {
          "indexed": true,
          "internalType": "address",
          "name": "account",
          "type": "address"
        },
        {
          "indexed": true,
          "internalType": "address",
          "name": "sender",
          "type": "address"
        }
      ],
      "name": "RoleRevoked",
      "type": "event"
    },
    {
      "anonymous": false,
      "inputs": [
        {
          "indexed": false,
          "internalType": "address",
          "name": "account",
          "type": "address"
        }
      ],
      "name": "Unpaused",
      "type": "event"
    },
    {
      "inputs": [],
      "name": "DEFAULT_ADMIN_ROLE",
      "outputs": [
        {
          "internalType": "bytes32",
          "name": "",
          "type": "bytes32"
        }
      ],
      "stateMutability": "view",
      "type": "function"
    },
    {
      "inputs": [
        {
          "internalType": "address",
          "name": "_userAddress",
          "type": "address"
        }
      ],
      "name": "confirmUserQuota",
      "outputs": [
        {
          "internalType": "bool",
          "name": "",
          "type": "bool"
        }
      ],
      "stateMutability": "nonpayable",
      "type": "function"
    },
    {
      "inputs": [
        {
          "internalType": "address[]",
          "name": "_usersAddresses",
          "type": "address[]"
        }
      ],
      "name": "confirmUserQuotaBatch",
      "outputs": [
        {
          "internalType": "bool",
          "name": "",
          "type": "bool"
        }
      ],
      "stateMutability": "nonpayable",
      "type": "function"
    },
    {
      "inputs": [],
      "name": "getJoinedUsers",
      "outputs": [
        {
          "internalType": "address[]",
          "name": "",
          "type": "address[]"
        }
      ],
      "stateMutability": "view",
      "type": "function"
    },
    {
      "inputs": [
        {
          "internalType": "bytes32",
          "name": "role",
          "type": "bytes32"
        }
      ],
      "name": "getRoleAdmin",
      "outputs": [
        {
          "internalType": "bytes32",
          "name": "",
          "type": "bytes32"
        }
      ],
      "stateMutability": "view",
      "type": "function"
    },
    {
      "inputs": [
        {
          "internalType": "bytes32",
          "name": "role",
          "type": "bytes32"
        },
        {
          "internalType": "address",
          "name": "account",
          "type": "address"
        }
      ],
      "name": "grantRole",
      "outputs": [],
      "stateMutability": "nonpayable",
      "type": "function"
    },
    {
      "inputs": [
        {
          "internalType": "bytes32",
          "name": "role",
          "type": "bytes32"
        },
        {
          "internalType": "address",
          "name": "account",
          "type": "address"
        }
      ],
      "name": "hasRole",
      "outputs": [
        {
          "internalType": "bool",
          "name": "",
          "type": "bool"
        }
      ],
      "stateMutability": "view",
      "type": "function"
    },
    {
      "inputs": [
        {
          "internalType": "address",
          "name": "",
          "type": "address"
        }
      ],
      "name": "isConfirmed",
      "outputs": [
        {
          "internalType": "bool",
          "name": "",
          "type": "bool"
        }
      ],
      "stateMutability": "view",
      "type": "function"
    },
    {
      "inputs": [
        {
          "internalType": "address",
          "name": "",
          "type": "address"
        }
      ],
      "name": "isJoined",
      "outputs": [
        {
          "internalType": "bool",
          "name": "",
          "type": "bool"
        }
      ],
      "stateMutability": "view",
      "type": "function"
    },
    {
      "inputs": [],
      "name": "joinIn",
      "outputs": [
        {
          "internalType": "bool",
          "name": "",
          "type": "bool"
        }
      ],
      "stateMutability": "payable",
      "type": "function"
    },
    {
      "inputs": [
        {
          "internalType": "uint256",
          "name": "",
          "type": "uint256"
        }
      ],
      "name": "joinedUsers",
      "outputs": [
        {
          "internalType": "address",
          "name": "",
          "type": "address"
        }
      ],
      "stateMutability": "view",
      "type": "function"
    },
    {
      "inputs": [],
      "name": "pause",
      "outputs": [],
      "stateMutability": "nonpayable",
      "type": "function"
    },
    {
      "inputs": [],
      "name": "paused",
      "outputs": [
        {
          "internalType": "bool",
          "name": "",
          "type": "bool"
        }
      ],
      "stateMutability": "view",
      "type": "function"
    },
    {
      "inputs": [
        {
          "internalType": "address",
          "name": "_userAddress",
          "type": "address"
        }
      ],
      "name": "refundFee",
      "outputs": [
        {
          "internalType": "bool",
          "name": "",
          "type": "bool"
        }
      ],
      "stateMutability": "nonpayable",
      "type": "function"
    },
    {
      "inputs": [
        {
          "internalType": "address[]",
          "name": "_usersAddresses",
          "type": "address[]"
        }
      ],
      "name": "refundFeeBatch",
      "outputs": [
        {
          "internalType": "bool",
          "name": "",
          "type": "bool"
        }
      ],
      "stateMutability": "nonpayable",
      "type": "function"
    },
    {
      "inputs": [],
      "name": "registrationFee",
      "outputs": [
        {
          "internalType": "uint256",
          "name": "",
          "type": "uint256"
        }
      ],
      "stateMutability": "view",
      "type": "function"
    },
    {
      "inputs": [
        {
          "internalType": "bytes32",
          "name": "role",
          "type": "bytes32"
        },
        {
          "internalType": "address",
          "name": "account",
          "type": "address"
        }
      ],
      "name": "renounceRole",
      "outputs": [],
      "stateMutability": "nonpayable",
      "type": "function"
    },
    {
      "inputs": [],
      "name": "reset",
      "outputs": [],
      "stateMutability": "nonpayable",
      "type": "function"
    },
    {
      "inputs": [
        {
          "internalType": "bytes32",
          "name": "role",
          "type": "bytes32"
        },
        {
          "internalType": "address",
          "name": "account",
          "type": "address"
        }
      ],
      "name": "revokeRole",
      "outputs": [],
      "stateMutability": "nonpayable",
      "type": "function"
    },
    {
      "inputs": [
        {
          "internalType": "bytes4",
          "name": "interfaceId",
          "type": "bytes4"
        }
      ],
      "name": "supportsInterface",
      "outputs": [
        {
          "internalType": "bool",
          "name": "",
          "type": "bool"
        }
      ],
      "stateMutability": "view",
      "type": "function"
    },
    {
      "inputs": [],
      "name": "unpause",
      "outputs": [],
      "stateMutability": "nonpayable",
      "type": "function"
    },
    {
      "inputs": [
        {
          "internalType": "uint256",
          "name": "_newFee",
          "type": "uint256"
        }
      ],
      "name": "updateRegistrationFee",
      "outputs": [
        {
          "internalType": "bool",
          "name": "",
          "type": "bool"
        }
      ],
      "stateMutability": "nonpayable",
      "type": "function"
    }
  ],
  "bytecode": {
    "object": "0x608060405234801561001057600080fd5b506040516115f63803806115f683398101604081905261002f916100db565b6000805460ff191681556001600255600382905561004d9033610053565b506100f4565b60008281526001602090815260408083206001600160a01b038516845290915290205460ff166100d75760008281526001602081815260408084206001600160a01b0386168086529252808420805460ff19169093179092559051339285917f2f8788117e7eff1d82e926ec794901d17c78024a50270940304540a733656f0d9190a45b5050565b6000602082840312156100ed57600080fd5b5051919050565b6114f3806101036000396000f3fe6080604052600436106101355760003560e01c80635c2dfece116100ab57806391d148541161006f57806391d1485414610368578063a217fddf14610388578063ae959e711461039d578063af582c6b146103bf578063d547741f146103df578063d826f88f146103ff57600080fd5b80635c2dfece146102b35780635c975abb146102eb5780635e6a43f51461030357806369dfc47f146103335780638456cb591461035357600080fd5b80632f2ff15d116100fd5780632f2ff15d1461021457806336568abe146102365780633698237c146102565780633f4ba83a1461027657806353cc38241461028b578063597c7e281461029357600080fd5b806301ffc9a71461013a57806314c44e091461016f57806318e4ac35146101935780631a45c04e146101c3578063248a9ca3146101e3575b600080fd5b34801561014657600080fd5b5061015a610155366004611116565b610414565b60405190151581526020015b60405180910390f35b34801561017b57600080fd5b5061018560035481565b604051908152602001610166565b34801561019f57600080fd5b5061015a6101ae36600461115c565b60056020526000908152604090205460ff1681565b3480156101cf57600080fd5b5061015a6101de36600461118d565b61044b565b3480156101ef57600080fd5b506101856101fe366004611252565b6000908152600160208190526040909120015490565b34801561022057600080fd5b5061023461022f36600461126b565b610503565b005b34801561024257600080fd5b5061023461025136600461126b565b61052f565b34801561026257600080fd5b5061015a61027136600461115c565b6105ad565b34801561028257600080fd5b50610234610777565b61015a61078e565b34801561029f57600080fd5b5061015a6102ae36600461115c565b61099c565b3480156102bf57600080fd5b506102d36102ce366004611252565b610acf565b6040516001600160a01b039091168152602001610166565b3480156102f757600080fd5b5060005460ff1661015a565b34801561030f57600080fd5b5061015a61031e36600461115c565b60046020526000908152604090205460ff1681565b34801561033f57600080fd5b5061015a61034e36600461118d565b610af9565b34801561035f57600080fd5b50610234610b51565b34801561037457600080fd5b5061015a61038336600461126b565b610b65565b34801561039457600080fd5b50610185600081565b3480156103a957600080fd5b506103b2610b90565b6040516101669190611297565b3480156103cb57600080fd5b5061015a6103da366004611252565b610bf2565b3480156103eb57600080fd5b506102346103fa36600461126b565b610c4c565b34801561040b57600080fd5b50610234610c73565b60006001600160e01b03198216637965db0b60e01b148061044557506301ffc9a760e01b6001600160e01b03198316145b92915050565b6000806104588133610cfd565b60028054036104ae5760405162461bcd60e51b815260206004820152601f60248201527f5265656e7472616e637947756172643a207265656e7472616e742063616c6c0060448201526064015b60405180910390fd5b6002805560005b83518110156104f3576104e08482815181106104d3576104d36112e4565b60200260200101516105ad565b50806104eb81611310565b9150506104b5565b5060019150506001600255919050565b600082815260016020819052604090912001546105208133610cfd565b61052a8383610d61565b505050565b6001600160a01b038116331461059f5760405162461bcd60e51b815260206004820152602f60248201527f416363657373436f6e74726f6c3a2063616e206f6e6c792072656e6f756e636560448201526e103937b632b9903337b91039b2b63360891b60648201526084016104a5565b6105a98282610dcc565b5050565b6000806105ba8133610cfd565b826001600160a01b0381166105e15760405162461bcd60e51b81526004016104a590611329565b336105fe5760405162461bcd60e51b81526004016104a590611329565b600280540361064f5760405162461bcd60e51b815260206004820152601f60248201527f5265656e7472616e637947756172643a207265656e7472616e742063616c6c0060448201526064016104a5565b600280556001600160a01b03841660009081526004602052604090205460ff168061069257506001600160a01b03841660009081526005602052604090205460ff165b15610734576003546040516000916001600160a01b038716918381818185875af1925050503d80600081146106e3576040519150601f19603f3d011682016040523d82523d6000602084013e6106e8565b606091505b505090508061072d5760405162461bcd60e51b8152602060048201526011602482015270151c985b9cd858dd1a5bdb91985a5b1959607a1b60448201526064016104a5565b925061076b565b60405162461bcd60e51b815260206004820152600c60248201526b155cd95c939bdd119bdd5b9960a21b60448201526064016104a5565b50506001600255919050565b60006107838133610cfd565b61078b610e33565b50565b6000805460ff16156107d55760405162461bcd60e51b815260206004820152601060248201526f14185d5cd8589b194e881c185d5cd95960821b60448201526064016104a5565b333b156108305760405162461bcd60e51b8152602060048201526024808201527f526567697374726174696f6e4d616e616765723a20636f6e7472616374206361604482015263363632b960e11b60648201526084016104a5565b600354339034146108835760405162461bcd60e51b815260206004820181905260248201527f526567697374726174696f6e4d616e616765723a20696e76616c69642066656560448201526064016104a5565b6001600160a01b03811660009081526005602052604090205460ff16156108bc5760405162461bcd60e51b81526004016104a59061136a565b6001600160a01b03811660009081526004602052604090205460ff16156109315760405162461bcd60e51b815260206004820152602360248201527f526567697374726174696f6e4d616e616765723a20616c7265616479206a6f696044820152621b995960ea1b60648201526084016104a5565b6001600160a01b03166000818152600460205260408120805460ff1916600190811790915560068054808301825592527ff652222313e28459528d920b65115c16c04f3efc82aaedc97be59f3f377c0d3f90910180546001600160a01b031916909217909155905090565b6000816001600160a01b0381166109c55760405162461bcd60e51b81526004016104a590611329565b336109e25760405162461bcd60e51b81526004016104a590611329565b60006109ee8133610cfd565b6001600160a01b03841660009081526005602052604090205460ff1615610a275760405162461bcd60e51b81526004016104a59061136a565b6001600160a01b03841660009081526004602052604090205460ff16610a8f5760405162461bcd60e51b815260206004820152601f60248201527f526567697374726174696f6e4d616e616765723a206e6f74206a6f696e65640060448201526064016104a5565b5050506001600160a01b03166000908152600460209081526040808320805460ff1990811690915560059092529091208054909116600190811790915590565b60068181548110610adf57600080fd5b6000918252602090912001546001600160a01b0316905081565b600080610b068133610cfd565b60005b8351811015610b4757610b34848281518110610b2757610b276112e4565b602002602001015161099c565b5080610b3f81611310565b915050610b09565b5060019392505050565b6000610b5d8133610cfd565b61078b610ec6565b60009182526001602090815260408084206001600160a01b0393909316845291905290205460ff1690565b60606006805480602002602001604051908101604052809291908181526020018280548015610be857602002820191906000526020600020905b81546001600160a01b03168152600190910190602001808311610bca575b5050505050905090565b600080610bff8133610cfd565b6003805490849055604080518581526020810183905233917f6a4b734ad347025e27298a61cb8c2cb2754ad95e3cea92ad5cf9ca603ac9aef8910160405180910390a25060019392505050565b60008281526001602081905260409091200154610c698133610cfd565b61052a8383610dcc565b6000610c7f8133610cfd565b60005b600654811015610cf057600060068281548110610ca157610ca16112e4565b60009182526020808320909101546001600160a01b03168252600481526040808320805460ff199081169091556005909252909120805490911690555080610ce881611310565b915050610c82565b5061078b600660006110e4565b610d078282610b65565b6105a957610d1f816001600160a01b03166014610f41565b610d2a836020610f41565b604051602001610d3b9291906113d4565b60408051601f198184030181529082905262461bcd60e51b82526104a591600401611449565b610d6b8282610b65565b6105a95760008281526001602081815260408084206001600160a01b0386168086529252808420805460ff19169093179092559051339285917f2f8788117e7eff1d82e926ec794901d17c78024a50270940304540a733656f0d9190a45050565b610dd68282610b65565b156105a95760008281526001602090815260408083206001600160a01b0385168085529252808320805460ff1916905551339285917ff6391f5c32d9c69d2a47ea670b442974b53935d1edc7fd64eb21e047a839171b9190a45050565b60005460ff16610e7c5760405162461bcd60e51b815260206004820152601460248201527314185d5cd8589b194e881b9bdd081c185d5cd95960621b60448201526064016104a5565b6000805460ff191690557f5db9ee0a495bf2e6ff9c91a7834c1ba4fdd244a5e8aa4e537bd38aeae4b073aa335b6040516001600160a01b03909116815260200160405180910390a1565b60005460ff1615610f0c5760405162461bcd60e51b815260206004820152601060248201526f14185d5cd8589b194e881c185d5cd95960821b60448201526064016104a5565b6000805460ff191660011790557f62e78cea01bee320cd4e420270b5ea74000d11b0c9f74754ebdbfc544b05a258610ea93390565b60606000610f5083600261147c565b610f5b906002611493565b67ffffffffffffffff811115610f7357610f73611177565b6040519080825280601f01601f191660200182016040528015610f9d576020820181803683370190505b509050600360fc1b81600081518110610fb857610fb86112e4565b60200101906001600160f81b031916908160001a905350600f60fb1b81600181518110610fe757610fe76112e4565b60200101906001600160f81b031916908160001a905350600061100b84600261147c565b611016906001611493565b90505b600181111561108e576f181899199a1a9b1b9c1cb0b131b232b360811b85600f166010811061104a5761104a6112e4565b1a60f81b828281518110611060576110606112e4565b60200101906001600160f81b031916908160001a90535060049490941c93611087816114a6565b9050611019565b5083156110dd5760405162461bcd60e51b815260206004820181905260248201527f537472696e67733a20686578206c656e67746820696e73756666696369656e7460448201526064016104a5565b9392505050565b508054600082559060005260206000209081019061078b91905b8082111561111257600081556001016110fe565b5090565b60006020828403121561112857600080fd5b81356001600160e01b0319811681146110dd57600080fd5b80356001600160a01b038116811461115757600080fd5b919050565b60006020828403121561116e57600080fd5b6110dd82611140565b634e487b7160e01b600052604160045260246000fd5b600060208083850312156111a057600080fd5b823567ffffffffffffffff808211156111b857600080fd5b818501915085601f8301126111cc57600080fd5b8135818111156111de576111de611177565b8060051b604051601f19603f8301168101818110858211171561120357611203611177565b60405291825284820192508381018501918883111561122157600080fd5b938501935b828510156112465761123785611140565b84529385019392850192611226565b98975050505050505050565b60006020828403121561126457600080fd5b5035919050565b6000806040838503121561127e57600080fd5b8235915061128e60208401611140565b90509250929050565b6020808252825182820181905260009190848201906040850190845b818110156112d85783516001600160a01b0316835292840192918401916001016112b3565b50909695505050505050565b634e487b7160e01b600052603260045260246000fd5b634e487b7160e01b600052601160045260246000fd5b600060018201611322576113226112fa565b5060010190565b60208082526021908201527f526567697374726174696f6e4d616e616765723a207a65726f206164647265736040820152607360f81b606082015260800190565b60208082526026908201527f526567697374726174696f6e4d616e616765723a20616c726561647920636f6e604082015265199a5c9b595960d21b606082015260800190565b60005b838110156113cb5781810151838201526020016113b3565b50506000910152565b7f416363657373436f6e74726f6c3a206163636f756e742000000000000000000081526000835161140c8160178501602088016113b0565b7001034b99036b4b9b9b4b733903937b6329607d1b601791840191820152835161143d8160288401602088016113b0565b01602801949350505050565b60208152600082518060208401526114688160408501602087016113b0565b601f01601f19169190910160400192915050565b8082028115828204841417610445576104456112fa565b80820180821115610445576104456112fa565b6000816114b5576114b56112fa565b50600019019056fea264697066735822122058e93a7e2d3145480e74774a5bd840d257aa3854ac1624115e72709a4241ec3664736f6c63430008130033",
    "linkReferences": {}
  },
  "methodIdentifiers": {
    "DEFAULT_ADMIN_ROLE()": "a217fddf",
    "confirmUserQuota(address)": "597c7e28",
    "confirmUserQuotaBatch(address[])": "69dfc47f",
    "getJoinedUsers()": "ae959e71",
    "getRoleAdmin(bytes32)": "248a9ca3",
    "grantRole(bytes32,address)": "2f2ff15d",
    "hasRole(bytes32,address)": "91d14854",
    "isConfirmed(address)": "18e4ac35",
    "isJoined(address)": "5e6a43f5",
    "joinIn()": "53cc3824",
    "joinedUsers(uint256)": "5c2dfece",
    "pause()": "8456cb59",
    "paused()": "5c975abb",
    "refundFee(address)": "3698237c",
    "refundFeeBatch(address[])": "1a45c04e",
    "registrationFee()": "14c44e09",
    "renounceRole(bytes32,address)": "36568abe",
    "reset()": "d826f88f",
    "revokeRole(bytes32,address)": "d547741f",
    "supportsInterface(bytes4)": "01ffc9a7",
    "unpause()": "3f4ba83a",
    "updateRegistrationFee(uint256)": "af582c6b"
  },
  "id": 27
}