{
  "abi": [
    {
      "inputs": [
        {
          "internalType": "uint256",
          "name": "_initialRegistrationFee",
          "type": "uint256"
        }
      ],
      "stateMutability": "nonpayable",
      "type": "constructor"
    },
    {
      "anonymous": false,
      "inputs": [
        {
          "indexed": false,
          "internalType": "uint8",
          "name": "version",
          "type": "uint8"
        }
      ],
      "name": "Initialized",
      "type": "event"
    },
    {
      "anonymous": false,
      "inputs": [
        {
          "indexed": false,
          "internalType": "address",
          "name": "account",
          "type": "address"
        }
      ],
      "name": "Paused",
      "type": "event"
    },
    {
      "anonymous": false,
      "inputs": [
        {
          "indexed": true,
          "internalType": "address",
          "name": "admin",
          "type": "address"
        },
        {
          "indexed": false,
          "internalType": "uint256",
          "name": "newFee",
          "type": "uint256"
        },
        {
          "indexed": false,
          "internalType": "uint256",
          "name": "previosFee",
          "type": "uint256"
        }
      ],
      "name": "RegistrationFeeUpdated",
      "type": "event"
    },
    {
      "anonymous": false,
      "inputs": [
        {
          "indexed": true,
          "internalType": "bytes32",
          "name": "role",
          "type": "bytes32"
        },
        {
          "indexed": true,
          "internalType": "bytes32",
          "name": "previousAdminRole",
          "type": "bytes32"
        },
        {
          "indexed": true,
          "internalType": "bytes32",
          "name": "newAdminRole",
          "type": "bytes32"
        }
      ],
      "name": "RoleAdminChanged",
      "type": "event"
    },
    {
      "anonymous": false,
      "inputs": [
        {
          "indexed": true,
          "internalType": "bytes32",
          "name": "role",
          "type": "bytes32"
        },
        {
          "indexed": true,
          "internalType": "address",
          "name": "account",
          "type": "address"
        },
        {
          "indexed": true,
          "internalType": "address",
          "name": "sender",
          "type": "address"
        }
      ],
      "name": "RoleGranted",
      "type": "event"
    },
    {
      "anonymous": false,
      "inputs": [
        {
          "indexed": true,
          "internalType": "bytes32",
          "name": "role",
          "type": "bytes32"
        },
        {
          "indexed": true,
          "internalType": "address",
          "name": "account",
          "type": "address"
        },
        {
          "indexed": true,
          "internalType": "address",
          "name": "sender",
          "type": "address"
        }
      ],
      "name": "RoleRevoked",
      "type": "event"
    },
    {
      "anonymous": false,
      "inputs": [
        {
          "indexed": false,
          "internalType": "address",
          "name": "account",
          "type": "address"
        }
      ],
      "name": "Unpaused",
      "type": "event"
    },
    {
      "inputs": [],
      "name": "DEFAULT_ADMIN_ROLE",
      "outputs": [
        {
          "internalType": "bytes32",
          "name": "",
          "type": "bytes32"
        }
      ],
      "stateMutability": "view",
      "type": "function"
    },
    {
      "inputs": [
        {
          "internalType": "address",
          "name": "_userAddress",
          "type": "address"
        }
      ],
      "name": "confirmUserQuota",
      "outputs": [
        {
          "internalType": "bool",
          "name": "",
          "type": "bool"
        }
      ],
      "stateMutability": "nonpayable",
      "type": "function"
    },
    {
      "inputs": [
        {
          "internalType": "address[]",
          "name": "_usersAddresses",
          "type": "address[]"
        }
      ],
      "name": "confirmUserQuotaBatch",
      "outputs": [
        {
          "internalType": "bool",
          "name": "",
          "type": "bool"
        }
      ],
      "stateMutability": "nonpayable",
      "type": "function"
    },
    {
      "inputs": [],
      "name": "getJoinedUsers",
      "outputs": [
        {
          "internalType": "address[]",
          "name": "",
          "type": "address[]"
        }
      ],
      "stateMutability": "view",
      "type": "function"
    },
    {
      "inputs": [
        {
          "internalType": "bytes32",
          "name": "role",
          "type": "bytes32"
        }
      ],
      "name": "getRoleAdmin",
      "outputs": [
        {
          "internalType": "bytes32",
          "name": "",
          "type": "bytes32"
        }
      ],
      "stateMutability": "view",
      "type": "function"
    },
    {
      "inputs": [
        {
          "internalType": "bytes32",
          "name": "role",
          "type": "bytes32"
        },
        {
          "internalType": "address",
          "name": "account",
          "type": "address"
        }
      ],
      "name": "grantRole",
      "outputs": [],
      "stateMutability": "nonpayable",
      "type": "function"
    },
    {
      "inputs": [
        {
          "internalType": "bytes32",
          "name": "role",
          "type": "bytes32"
        },
        {
          "internalType": "address",
          "name": "account",
          "type": "address"
        }
      ],
      "name": "hasRole",
      "outputs": [
        {
          "internalType": "bool",
          "name": "",
          "type": "bool"
        }
      ],
      "stateMutability": "view",
      "type": "function"
    },
    {
      "inputs": [
        {
          "internalType": "address",
          "name": "",
          "type": "address"
        }
      ],
      "name": "isConfirmed",
      "outputs": [
        {
          "internalType": "bool",
          "name": "",
          "type": "bool"
        }
      ],
      "stateMutability": "view",
      "type": "function"
    },
    {
      "inputs": [
        {
          "internalType": "address",
          "name": "",
          "type": "address"
        }
      ],
      "name": "isJoined",
      "outputs": [
        {
          "internalType": "bool",
          "name": "",
          "type": "bool"
        }
      ],
      "stateMutability": "view",
      "type": "function"
    },
    {
      "inputs": [],
      "name": "joinIn",
      "outputs": [
        {
          "internalType": "bool",
          "name": "",
          "type": "bool"
        }
      ],
      "stateMutability": "payable",
      "type": "function"
    },
    {
      "inputs": [],
      "name": "pause",
      "outputs": [],
      "stateMutability": "nonpayable",
      "type": "function"
    },
    {
      "inputs": [],
      "name": "paused",
      "outputs": [
        {
          "internalType": "bool",
          "name": "",
          "type": "bool"
        }
      ],
      "stateMutability": "view",
      "type": "function"
    },
    {
      "inputs": [
        {
          "internalType": "address",
          "name": "_userAddress",
          "type": "address"
        }
      ],
      "name": "refundFee",
      "outputs": [
        {
          "internalType": "bool",
          "name": "",
          "type": "bool"
        }
      ],
      "stateMutability": "nonpayable",
      "type": "function"
    },
    {
      "inputs": [
        {
          "internalType": "address[]",
          "name": "_usersAddresses",
          "type": "address[]"
        }
      ],
      "name": "refundFeeBatch",
      "outputs": [
        {
          "internalType": "bool",
          "name": "",
          "type": "bool"
        }
      ],
      "stateMutability": "nonpayable",
      "type": "function"
    },
    {
      "inputs": [],
      "name": "registrationFee",
      "outputs": [
        {
          "internalType": "uint256",
          "name": "",
          "type": "uint256"
        }
      ],
      "stateMutability": "view",
      "type": "function"
    },
    {
      "inputs": [
        {
          "internalType": "bytes32",
          "name": "role",
          "type": "bytes32"
        },
        {
          "internalType": "address",
          "name": "account",
          "type": "address"
        }
      ],
      "name": "renounceRole",
      "outputs": [],
      "stateMutability": "nonpayable",
      "type": "function"
    },
    {
      "inputs": [],
      "name": "reset",
      "outputs": [],
      "stateMutability": "nonpayable",
      "type": "function"
    },
    {
      "inputs": [
        {
          "internalType": "bytes32",
          "name": "role",
          "type": "bytes32"
        },
        {
          "internalType": "address",
          "name": "account",
          "type": "address"
        }
      ],
      "name": "revokeRole",
      "outputs": [],
      "stateMutability": "nonpayable",
      "type": "function"
    },
    {
      "inputs": [
        {
          "internalType": "bytes4",
          "name": "interfaceId",
          "type": "bytes4"
        }
      ],
      "name": "supportsInterface",
      "outputs": [
        {
          "internalType": "bool",
          "name": "",
          "type": "bool"
        }
      ],
      "stateMutability": "view",
      "type": "function"
    },
    {
      "inputs": [],
      "name": "unpause",
      "outputs": [],
      "stateMutability": "nonpayable",
      "type": "function"
    },
    {
      "inputs": [
        {
          "internalType": "uint256",
          "name": "_newFee",
          "type": "uint256"
        }
      ],
      "name": "updateRegistrationFee",
      "outputs": [
        {
          "internalType": "bool",
          "name": "",
          "type": "bool"
        }
      ],
      "stateMutability": "nonpayable",
      "type": "function"
    },
    {
      "inputs": [
        {
          "internalType": "uint256",
          "name": "",
          "type": "uint256"
        }
      ],
      "name": "users",
      "outputs": [
        {
          "internalType": "address",
          "name": "",
          "type": "address"
        }
      ],
      "stateMutability": "view",
      "type": "function"
    }
  ],
  "bytecode": {
    "object": "0x608060405234801561001057600080fd5b506040516117ed3803806117ed83398101604081905261002f916100dd565b6000805462ff0000191681556001600255600382905561004f9033610055565b506100f6565b60008281526001602090815260408083206001600160a01b038516845290915290205460ff166100d95760008281526001602081815260408084206001600160a01b0386168086529252808420805460ff19169093179092559051339285917f2f8788117e7eff1d82e926ec794901d17c78024a50270940304540a733656f0d9190a45b5050565b6000602082840312156100ef57600080fd5b5051919050565b6116e8806101056000396000f3fe6080604052600436106101355760003560e01c8063597c7e28116100ab57806391d148541161006f57806391d148541461036e578063a217fddf1461038e578063ae959e71146103a3578063af582c6b146103c5578063d547741f146103e5578063d826f88f1461040557600080fd5b8063597c7e28146102cb5780635c975abb146102eb5780635e6a43f51461030957806369dfc47f146103395780638456cb591461035957600080fd5b80632f2ff15d116100fd5780632f2ff15d1461021457806336568abe14610236578063365b98b2146102565780633698237c1461028e5780633f4ba83a146102ae57806353cc3824146102c357600080fd5b806301ffc9a71461013a57806314c44e091461016f57806318e4ac35146101935780631a45c04e146101c3578063248a9ca3146101e3575b600080fd5b34801561014657600080fd5b5061015a61015536600461136d565b61041a565b60405190151581526020015b60405180910390f35b34801561017b57600080fd5b5061018560035481565b604051908152602001610166565b34801561019f57600080fd5b5061015a6101ae3660046113ae565b60056020526000908152604090205460ff1681565b3480156101cf57600080fd5b5061015a6101de3660046113df565b610451565b3480156101ef57600080fd5b506101856101fe3660046114a4565b6000908152600160208190526040909120015490565b34801561022057600080fd5b5061023461022f3660046114bd565b610550565b005b34801561024257600080fd5b506102346102513660046114bd565b61057b565b34801561026257600080fd5b506102766102713660046114a4565b6105f9565b6040516001600160a01b039091168152602001610166565b34801561029a57600080fd5b5061015a6102a93660046113ae565b610623565b3480156102ba57600080fd5b506102346107a7565b61015a6107bd565b3480156102d757600080fd5b5061015a6102e63660046113ae565b61099c565b3480156102f757600080fd5b5060005462010000900460ff1661015a565b34801561031557600080fd5b5061015a6103243660046113ae565b60046020526000908152604090205460ff1681565b34801561034557600080fd5b5061015a6103543660046113df565b610ad1565b34801561036557600080fd5b50610234610cd8565b34801561037a57600080fd5b5061015a6103893660046114bd565b610ceb565b34801561039a57600080fd5b50610185600081565b3480156103af57600080fd5b506103b8610d16565b60405161016691906114e9565b3480156103d157600080fd5b5061015a6103e03660046114a4565b610d78565b3480156103f157600080fd5b506102346104003660046114bd565b610dd1565b34801561041157600080fd5b50610234610df7565b60006001600160e01b03198216637965db0b60e01b148061044b57506301ffc9a760e01b6001600160e01b03198316145b92915050565b60008061045d81610e80565b610465610e8a565b60005b835181101561053b57600084828151811061048557610485611536565b60200260200101516001600160a01b031660035460405160006040518083038185875af1925050503d80600081146104d9576040519150601f19603f3d011682016040523d82523d6000602084013e6104de565b606091505b50509050806105285760405162461bcd60e51b8152602060048201526011602482015270151c985b9cd858dd1a5bdb91985a5b1959607a1b60448201526064015b60405180910390fd5b508061053381611562565b915050610468565b506001915061054a6001600255565b50919050565b6000828152600160208190526040909120015461056c81610e80565b6105768383610ee1565b505050565b6001600160a01b03811633146105eb5760405162461bcd60e51b815260206004820152602f60248201527f416363657373436f6e74726f6c3a2063616e206f6e6c792072656e6f756e636560448201526e103937b632b9903337b91039b2b63360891b606482015260840161051f565b6105f58282610f4c565b5050565b6006818154811061060957600080fd5b6000918252602090912001546001600160a01b0316905081565b60008061062f81610e80565b826001600160a01b0381166106565760405162461bcd60e51b815260040161051f9061157b565b336106735760405162461bcd60e51b815260040161051f9061157b565b61067b610e8a565b6001600160a01b03841660009081526004602052604090205460ff16806106ba57506001600160a01b03841660009081526005602052604090205460ff165b1561075f576003546040516000916001600160a01b038716918381818185875af1925050503d806000811461070b576040519150601f19603f3d011682016040523d82523d6000602084013e610710565b606091505b50509050806107555760405162461bcd60e51b8152602060048201526011602482015270151c985b9cd858dd1a5bdb91985a5b1959607a1b604482015260640161051f565b6001935050610796565b60405162461bcd60e51b815260206004820152600c60248201526b155cd95c939bdd119bdd5b9960a21b604482015260640161051f565b6107a06001600255565b5050919050565b60006107b281610e80565b6107ba610fb3565b50565b60006107c7611007565b333b156108095760405162461bcd60e51b815260206004820152601060248201526f14d95b99195c925cd0dbdb9d1c9858dd60821b604482015260640161051f565b6000610813611055565b6001600160a01b03811660009081526005602052604090205490915060ff161561087f5760405162461bcd60e51b815260206004820152601960248201527f596f752061726520616c726561647920636f6e6669726d656400000000000000604482015260640161051f565b6001600160a01b03811660009081526004602052604090205460ff16156108e05760405162461bcd60e51b8152602060048201526015602482015274165bdd48185c9948185b1c99591e481a9bda5b9959605a1b604482015260640161051f565b60035434146109315760405162461bcd60e51b815260206004820152601760248201527f596f752073656e7420696e76616c69642076616c75652e000000000000000000604482015260640161051f565b6001600160a01b03166000818152600460205260408120805460ff1916600190811790915560068054808301825592527ff652222313e28459528d920b65115c16c04f3efc82aaedc97be59f3f377c0d3f90910180546001600160a01b031916909217909155905090565b6000816001600160a01b0381166109c55760405162461bcd60e51b815260040161051f9061157b565b336109e25760405162461bcd60e51b815260040161051f9061157b565b6001600160a01b03831660009081526005602052604090205460ff1615610a3e5760405162461bcd60e51b815260206004820152601060248201526f105b1c9958591e50dbdb999a5c9b595960821b604482015260640161051f565b6001600160a01b03831660009081526004602052604090205460ff16610a925760405162461bcd60e51b8152602060048201526009602482015268139bdd129bda5b995960ba1b604482015260640161051f565b50506001600160a01b03166000908152600460209081526040808320805460ff1990811690915560059092529091208054909116600190811790915590565b6000805b8251811015610ccf5760006001600160a01b031683600081518110610afc57610afc611536565b60200260200101516001600160a01b031603610b2a5760405162461bcd60e51b815260040161051f9061157b565b60056000848381518110610b4057610b40611536565b6020908102919091018101516001600160a01b031682528101919091526040016000205460ff1615610ba75760405162461bcd60e51b815260206004820152601060248201526f105b1c9958591e50dbdb999a5c9b595960821b604482015260640161051f565b60046000848381518110610bbd57610bbd611536565b6020908102919091018101516001600160a01b031682528101919091526040016000205460ff16610c1c5760405162461bcd60e51b8152602060048201526009602482015268139bdd129bda5b995960ba1b604482015260640161051f565b600060046000858481518110610c3457610c34611536565b60200260200101516001600160a01b03166001600160a01b0316815260200190815260200160002060006101000a81548160ff021916908315150217905550600160056000858481518110610c8b57610c8b611536565b6020908102919091018101516001600160a01b03168252810191909152604001600020805460ff191691151591909117905580610cc781611562565b915050610ad5565b50600192915050565b6000610ce381610e80565b6107ba61109d565b60009182526001602090815260408084206001600160a01b0393909316845291905290205460ff1690565b60606006805480602002602001604051908101604052809291908181526020018280548015610d6e57602002820191906000526020600020905b81546001600160a01b03168152600190910190602001808311610d50575b5050505050905090565b600080610d8481610e80565b6003805490849055604080518581526020810183905233917f6a4b734ad347025e27298a61cb8c2cb2754ad95e3cea92ad5cf9ca603ac9aef8910160405180910390a25060019392505050565b60008281526001602081905260409091200154610ded81610e80565b6105768383610f4c565b6000610e0281610e80565b60005b600654811015610e7357600060068281548110610e2457610e24611536565b60009182526020808320909101546001600160a01b03168252600481526040808320805460ff199081169091556005909252909120805490911690555080610e6b81611562565b915050610e05565b506107ba6006600061133b565b6107ba81336110de565b6002805403610edb5760405162461bcd60e51b815260206004820152601f60248201527f5265656e7472616e637947756172643a207265656e7472616e742063616c6c00604482015260640161051f565b60028055565b610eeb8282610ceb565b6105f55760008281526001602081815260408084206001600160a01b0386168086529252808420805460ff19169093179092559051339285917f2f8788117e7eff1d82e926ec794901d17c78024a50270940304540a733656f0d9190a45050565b610f568282610ceb565b156105f55760008281526001602090815260408083206001600160a01b0385168085529252808320805460ff1916905551339285917ff6391f5c32d9c69d2a47ea670b442974b53935d1edc7fd64eb21e047a839171b9190a45050565b610fbb611137565b6000805462ff0000191690557f5db9ee0a495bf2e6ff9c91a7834c1ba4fdd244a5e8aa4e537bd38aeae4b073aa335b6040516001600160a01b03909116815260200160405180910390a1565b60005462010000900460ff16156110535760405162461bcd60e51b815260206004820152601060248201526f14185d5cd8589b194e881c185d5cd95960821b604482015260640161051f565b565b600033803b156110985760405162461bcd60e51b815260206004820152600e60248201526d21b7b73a3930b1ba29b2b73232b960911b604482015260640161051f565b919050565b6110a5611007565b6000805462ff00001916620100001790557f62e78cea01bee320cd4e420270b5ea74000d11b0c9f74754ebdbfc544b05a258610fea3390565b6110e88282610ceb565b6105f5576110f581611186565b611100836020611198565b6040516020016111119291906115c9565b60408051601f198184030181529082905262461bcd60e51b825261051f9160040161163e565b60005462010000900460ff166110535760405162461bcd60e51b815260206004820152601460248201527314185d5cd8589b194e881b9bdd081c185d5cd95960621b604482015260640161051f565b606061044b6001600160a01b03831660145b606060006111a7836002611671565b6111b2906002611688565b67ffffffffffffffff8111156111ca576111ca6113c9565b6040519080825280601f01601f1916602001820160405280156111f4576020820181803683370190505b509050600360fc1b8160008151811061120f5761120f611536565b60200101906001600160f81b031916908160001a905350600f60fb1b8160018151811061123e5761123e611536565b60200101906001600160f81b031916908160001a9053506000611262846002611671565b61126d906001611688565b90505b60018111156112e5576f181899199a1a9b1b9c1cb0b131b232b360811b85600f16601081106112a1576112a1611536565b1a60f81b8282815181106112b7576112b7611536565b60200101906001600160f81b031916908160001a90535060049490941c936112de8161169b565b9050611270565b5083156113345760405162461bcd60e51b815260206004820181905260248201527f537472696e67733a20686578206c656e67746820696e73756666696369656e74604482015260640161051f565b9392505050565b50805460008255906000526020600020908101906107ba91905b808211156113695760008155600101611355565b5090565b60006020828403121561137f57600080fd5b81356001600160e01b03198116811461133457600080fd5b80356001600160a01b038116811461109857600080fd5b6000602082840312156113c057600080fd5b61133482611397565b634e487b7160e01b600052604160045260246000fd5b600060208083850312156113f257600080fd5b823567ffffffffffffffff8082111561140a57600080fd5b818501915085601f83011261141e57600080fd5b813581811115611430576114306113c9565b8060051b604051601f19603f83011681018181108582111715611455576114556113c9565b60405291825284820192508381018501918883111561147357600080fd5b938501935b828510156114985761148985611397565b84529385019392850192611478565b98975050505050505050565b6000602082840312156114b657600080fd5b5035919050565b600080604083850312156114d057600080fd5b823591506114e060208401611397565b90509250929050565b6020808252825182820181905260009190848201906040850190845b8181101561152a5783516001600160a01b031683529284019291840191600101611505565b50909695505050505050565b634e487b7160e01b600052603260045260246000fd5b634e487b7160e01b600052601160045260246000fd5b6000600182016115745761157461154c565b5060010190565b60208082526010908201526f16995c9bd059191c995cdcd19bdd5b9960821b604082015260600190565b60005b838110156115c05781810151838201526020016115a8565b50506000910152565b7f416363657373436f6e74726f6c3a206163636f756e74200000000000000000008152600083516116018160178501602088016115a5565b7001034b99036b4b9b9b4b733903937b6329607d1b60179184019182015283516116328160288401602088016115a5565b01602801949350505050565b602081526000825180602084015261165d8160408501602087016115a5565b601f01601f19169190910160400192915050565b808202811582820484141761044b5761044b61154c565b8082018082111561044b5761044b61154c565b6000816116aa576116aa61154c565b50600019019056fea2646970667358221220b109183d9becee6852e4e6ad5da441ca111e593d644ae42ca8c09d1bee57b1cd64736f6c63430008130033",
    "linkReferences": {}
  },
  "methodIdentifiers": {
    "DEFAULT_ADMIN_ROLE()": "a217fddf",
    "confirmUserQuota(address)": "597c7e28",
    "confirmUserQuotaBatch(address[])": "69dfc47f",
    "getJoinedUsers()": "ae959e71",
    "getRoleAdmin(bytes32)": "248a9ca3",
    "grantRole(bytes32,address)": "2f2ff15d",
    "hasRole(bytes32,address)": "91d14854",
    "isConfirmed(address)": "18e4ac35",
    "isJoined(address)": "5e6a43f5",
    "joinIn()": "53cc3824",
    "pause()": "8456cb59",
    "paused()": "5c975abb",
    "refundFee(address)": "3698237c",
    "refundFeeBatch(address[])": "1a45c04e",
    "registrationFee()": "14c44e09",
    "renounceRole(bytes32,address)": "36568abe",
    "reset()": "d826f88f",
    "revokeRole(bytes32,address)": "d547741f",
    "supportsInterface(bytes4)": "01ffc9a7",
    "unpause()": "3f4ba83a",
    "updateRegistrationFee(uint256)": "af582c6b",
    "users(uint256)": "365b98b2"
  },
  "id": 30
}